:020000040800F2
:10000000405F00204103000805140008350F000878
:1000100003140008950E0008212C000800000000C1
:10002000000000000000000000000000890200083D
:10003000970E000800000000DD0200082D180008DF
:100040005B0300085B0300085B0300085B03000818
:100050005B0300085B0300085B0300085B03000808
:100060005B0300085B0300085B0300085B030008F8
:100070005B0300085B0300085B0300085B030008E8
:100080005B0300085B0300085B030008000000003E
:100090000000000000000000000000005B030008FA
:1000A0005B0300085B0300085B0300085B030008B8
:1000B0005B030008051900085B0300085B030008E8
:1000C0005B0300085B0300085B0300085B03000898
:1000D0005B030008651D00085B03000800000000CA
:1000E0005B0300085B0300085B03000800000000DE
:1000F0000000000000000000000000005B0300089A
:10010000000000005B030008411900085B030008C1
:1001100000000000000000000000000000000000DF
:100120005B0300085B0300085B0300085B03000837
:100130005B03000800000000000000000000000059
:100140000000000000000000000000005B03000849
:100150005B0300085B0300085B0300085B03000807
:100160005B0300085B0300080000000000000000C3
:10017000000000000000000000000000000000007F
:10018000000000005B030008000000000000000009
:100190005B0300085B03000800F002F800F064F85D
:1001A0000AA090E8000C82448344AAF10107DA45D2
:1001B00001D100F059F8AFF2090EBAE80F0013F0C0
:1001C000010F18BFFB1A43F001031847EC8C000025
:1001D0000C8D00000A444FF0000C10F8013B13F0A6
:1001E000070408BF10F8014B1D1108BF10F8015B90
:1001F000641E05D010F8016B641E01F8016BF9D183
:1002000013F0080F1EBF10F8014BAD1C0C1B09D1D9
:100210006D1E58BF01F801CBFAD505E014F8016B4B
:1002200001F8016B6D1EF9D59142D6D370470000DD
:100230000023002400250026103A28BF78C1FBD8EF
:10024000520728BF30C148BF0B607047642900F0D7
:10025000F380732900F04A83002070471FB507F030
:1002600052FF1FBD10B510BD00F0DEFB1146FFF7B9
:10027000F5FF04F0DFF900F0FCFB03B4FFF7F2FF39
:1002800003BC03F0E0F900002A4B19680868B0E8E5
:10029000F04F80F30988BFF36F8F4FF0000080F3B9
:1002A000118870470000000006480068006880F36D
:1002B000088862B661B6BFF34F8FBFF36F8F00DF60
:1002C00000BF00BF08ED00E0DFF80C00016841F45A
:1002D00070010160704700BF88ED00E0EFF3098016
:1002E000BFF36F8F134B1A681EF0100F08BF20ED7D
:1002F000108A20E9F04F106008B44FF0500080F3EE
:100300001188BFF34F8FBFF36F8F06F017FB4FF0CD
:10031000000080F3118808BC19680868B0E8F04F45
:100320001EF0100F08BFB0EC108A80F30988BFF3ED
:100330006F8F7047FC000020EFF3058070470000CE
:100340000948804709480047FEE7FEE7FEE7FEE769
:10035000FEE7FEE7FEE7FEE7FEE7FEE704480549A5
:10036000054A064B70470000411800089901000833
:1003700040590020405F0020405B0020405B00208F
:10038000704710B54C1084EA530404D54042C1F1C3
:10039000000138BF491E1B4204D55242C3F100037D
:1003A00038BF5B1E00F09DF914F0804F04D040422E
:1003B000C1F1000138BF491E14F0004F04D0524271
:1003C000C3F1000338BF5B1E10BD00000FB4044929
:1003D00010B503AA029800F08DFA10BC5DF814FB6A
:1003E000E800002070B50C460546012A05D02878A3
:1003F000800600D5EA69002302E0012305E05B1CCA
:10040000934202D2E05C0028F9D1A869E618C01A2C
:10041000A861286A184428622846AFF3008004E0E7
:10042000D5E9012114F8010B9047B442F8D32846CE
:10043000AFF3008070BD00002DE9F04106460024B6
:1004400010687529314616A510D0AFF3008000283A
:1004500002DA404213A507E031688A0701D512A5E8
:1004600002E0490704D511A5012401E0AFF30080A3
:1004700000210A2206F1240709E0B0FBF2FCB0FBE0
:10048000F2F302FB1C00303078541846491C002857
:10049000F3D123462A463046BDE8F04100F0A3B927
:1004A000000000002D0000002B00000020000000D4
:1004B0002DE9F05F894604464FF0000ADFF824B1C9
:1004C000FB44C0F820A02046E168884700287DD082
:1004D000252806D0D4E901219047206A401C2062DB
:1004E000F1E700255F462046E16888472028064658
:1004F00007DB312E05D2B81910F8200C08B10543DE
:10050000F1E7A80701D525F00405C4F81CA00027D1
:10051000C4F818A02A2E09D0304603F08DF838B35D
:1005200004EB8708303EC8F8186019E059F8041B3E
:10053000204604EB87029161E1688847012F064657
:1005400018D1E069002820DA25F020051DE0D8F850
:10055000180000EB800006EB40003038C8F81800A7
:100560002046E1688847064603F066F80028EED189
:10057000012F0AD02E2E08D12046E16888477F1C23
:100580000646022F45F02005C4DBA069002803DAE7
:10059000404245F00105A061E80701D025F01005B3
:1005A000A6B1A6F14100192802D8203645F400650D
:1005B0004A463146204625604D46FFF747FE60B16A
:1005C000012807D0ED1D25F0070000E007E000F14D
:1005D000080978E705F1040975E730467AE7206AEB
:1005E000BDE8F09F9E88000040EA010310B59B071C
:1005F0000FD1042A0DD310C808C9121F9C42F8D08D
:1006000020BA19BA884201D9012010BD4FF0FF303D
:1006100010BD1AB1D30703D0521C07E0002010BD53
:1006200010F8013B11F8014B1B1B07D110F8013BDF
:1006300011F8014B1B1B01D1921EF1D1184610BDC0
:10064000032A40F2308010F0030C00F0158011F8FE
:10065000013BBCF1020F624498BF11F801CB00F8D6
:10066000013B38BF11F8013BA2F1040298BF00F82A
:1006700001CB38BF00F8013B11F0030300F04C81BF
:10068000083AC0F0088051F8043B083A51F804CB0E
:10069000A0E80810F5E7121D5CBF51F8043B40F8D4
:1006A000043BAFF30080D20724BF11F8013B11F8DF
:1006B00001CB48BF11F8012B24BF00F8013B00F823
:1006C00001CB48BF00F8012B704702F0FF0343EA5B
:1006D000032242EA024200F053B970477047704764
:1006E000704753EA020C00F069802DE9F04B4FF09F
:1006F0000006002B1FBFB3FA83F503FA05F424FAB2
:1007000005F65E4012BF1643B2FA82F502FA05F40E
:10071000C5F120051EBF22FA05FC44EA0C04203571
:1007200056EA044C4FEA144418BF641C4FF000080A
:100730004FF00009904271EB030C39D3002919BF27
:10074000B1FA81F701FA07F6B0FA80F700FA07F676
:10075000C7F120071EBF20FA07FC46EA0C06203727
:10076000B6FBF4FCA7EB0507103F07F01F0BCBF11E
:1007700020060CFA0BFB2CFA06F644BFB346002603
:10078000202FA4BF5E464FF0000B5BEA060C08BFAB
:100790004FF0010B19EB0B09ABFB027C48EB060891
:1007A000C01B06FB02CC0BFB03CC71EB0C01C1E7B9
:1007B0000B46024641464846BDE8F08B13B54FF064
:1007C00000004FF00001AFF30080BDE81C4070470F
:1007D00010B500F0F5F8006810BD10B5044600F043
:1007E000EFF8046010BD2DE9F0470D46994692469A
:1007F000044600F124080168880604D5E06921F068
:100800001001216000E00120A84201DD471B00E04B
:100810000027A1697A1902EB0900081AA061207863
:10082000C00602D42046AFF30080002608E0D4E9D9
:1008300001211AF806009047206A401C761C2062AD
:100840004E45F4DB2078C0060AD52046AFF3008081
:1008500006E0D4E9012130209047206A401C206244
:10086000381EA7F10107F4DC07E0D4E9012118F8EC
:1008700005009047206A401C2062281EA5F1010552
:10088000F3DC2046AFF300802078000602D502207A
:10089000BDE8F0870120FBE701694A1C0261087886
:1008A000704700B58FB0CDE90131002105910549B0
:1008B0007944CDE9031011466846FFF7F9FD0FB002
:1008C00000BD0000E5FFFFFF10B5436913B1AFF3B2
:1008D000008001E0FFF786FD012010BD127800F1D5
:1008E00024010A7000224A700122EDE711684FF0DE
:1008F000FF32E9E7074B70B50D467B44FFF7D1FFA8
:100900000446284600F060F810B14FF0FF3070BD8B
:10091000204670BD1B38000010B5203AC0F00B8097
:10092000B1E81850203AA0E81850B1E81850A0E8F3
:100930001850BFF4F5AF5FEA027C24BFB1E818504D
:10094000A0E8185044BF18C918C0BDE810405FEABD
:10095000827C24BF51F8043B40F8043B08BF704739
:10096000D20728BF31F8023B48BF11F8012B28BF3E
:1009700020F8023B48BF00F8012B70474FF00002FF
:100980000429C0F0128010F0030C00F02380CCF199
:10099000040CBCF1020F18BF00F8012BA8BF20F80F
:1009A000022BA1EB0C0100F015B85FEAC17C24BF5B
:1009B00000F8012B00F8012B48BF00F8012B70470D
:1009C00000487047DC580020007B00F08000704732
:1009D0004FF0000200B5134694469646203922BFD8
:1009E000A0E80C50A0E80C50B1F12001BFF4F7AF23
:1009F000090728BFA0E80C5048BF0CC05DF804EB05
:100A0000890028BF40F8042B08BF704748BF20F872
:100A1000022B11F0804F18BF00F8012B7047000027
:100A200000487047DC5800207546FFF7F9FFAE46D6
:100A300005006946534620F00700854618B020B5EA
:100A4000FFF78CFCBDE820404FF000064FF0000798
:100A50004FF000084FF0000B21F00701AC46ACE866
:100A6000C009ACE8C009ACE8C009ACE8C0098D46D3
:100A7000704710B50446AFF300802046BDE8104033
:100A8000FFF7FBBB614800B5B0F900005A213238CE
:100A90004843642290FBF2F05D4900EE100A5D4B82
:100AA0008863B8EEC00AD1ED130A184630EE600A2A
:100AB00083ED040A00F0E4FC086A93ED050A00EEF9
:100AC000900AF8EEE00AB4EEE00AF1EE10FA03DD67
:100AD00000EE100AB8EEC00A404200EE900A83ED24
:100AE000050AF8EEE00AB4EEE00AF1EE10FA03D2DD
:100AF00000EE100AB8EEC00A474883ED050AB0F9C7
:100B000000005A233238584390FBF2F000EE100AEE
:100B10000864D1ED120AB8EEC00A3E4B503330EEF5
:100B2000600A184683ED040A00F0AAFC886A93ED77
:100B3000050A00EE900AF8EEE00AB4EEE00AF1EEE3
:100B400010FA03DD00EE100AB8EEC00A404200EED3
:100B5000900A83ED050AF8EEE00AB4EEE00AF1EE41
:100B600010FA03D200EE100AB8EEC00A2B4883ED4B
:100B7000050AB0F900005A233238584390FBF2F0CE
:100B8000643000EE100AC863D1ED110AB8EEC00A55
:100B9000204A234B283230EE600A10EE100A82ED14
:100BA000040A984207DA10EE100A1E4B984202D24D
:100BB000B3EE0E0A01E09FED1C0A164882ED000A12
:100BC000283000F05DFC486A92ED050A00EE900ABC
:100BD000F8EEE00AB4EEE00AF1EE10FA03DD00EE02
:100BE000100AB8EEC00A404200EE900A82ED050AF3
:100BF000F8EEE00AB4EEE00AF1EE10FA03D200EEED
:100C0000100AB8EEC00A82ED050A00BDDA00002025
:100C10007400002040020020E4000020DC000020DE
:100C20000000A0400000A0C00000A04270B56B48CA
:100C30006B4C6A49D0ED050AB4F90800783100EE32
:100C4000100A0846B8EEC00A30EEC00A81ED040A68
:100C500000F016FCE06A91ED050A00EE900AF8EE4D
:100C6000E00AB4EEE00AF1EE10FA03DD00EE100A3D
:100C7000B8EEC00A404200EE900A81ED050AF8EE97
:100C8000E00AB4EEE00AF1EE10FA03D200EE100A28
:100C9000B8EEC00A81ED050A2088504900EE900A9E
:100CA0004E48A031F8EE600A283030EE200ABDEE42
:100CB000C00A84ED030AD0ED050AB4F9060000EE7F
:100CC000100A0846B8EEC00A30EEC00A81ED040AE8
:100CD00000F0D6FB206B91ED050A00EE900AF8EECD
:100CE000E00AB4EEE00AF1EE10FA03DD00EE100ABD
:100CF000B8EEC00A404200EE900A81ED050AF8EE17
:100D0000E00AB4EEE00AF1EE10FA03D200EE100AA7
:100D1000B8EEC00A81ED050A6088962100EE900ABF
:100D2000F8EE600A30EEC00ABDEEC00A10EE100AFE
:100D300020619338072800D221612848274A503083
:100D4000C832D0ED050AB4F9060000EE100A1046CC
:100D5000B8EEC00A30EEC00A82ED040A00F090FB43
:100D6000606B92ED050A00EE900AF8EEE00AB4EE30
:100D7000E00AF1EE10FA03DD00EE100AB8EEC00A48
:100D8000404200EE900A82ED050AF8EEE00AB4EE69
:100D9000E00AF1EE10FA03D200EE100AB8EEC00A33
:100DA00082ED050AA08800EE900AF8EE600A30EEA7
:100DB000C00ABDEEC00A10EE100A60619338072821
:100DC00000D26161074DE168284600F073FF2846B4
:100DD0002169BDE8704000F06FBF000040020020B4
:100DE000740000200008004070B5284A00252849FA
:100DF000D07153780124012B03D0FF2837D0D57050
:100E000070BD9378C8545B1CD8B290700F28F7D38C
:100E10005570957015715571022016790B5C401C48
:100E200003F00103334413710C28F6DB087BDBB2BB
:100E3000984205D1487BF02802D1887BF02814D055
:100E4000002DDDD048799071C8798B7900EB0320B3
:100E50005081487A0B7A00EB03201081C87A897A96
:100E600000EB01209081146170BD5471EAE7D078E5
:100E7000401CC0B2D0700228F6D3D5705470FF2049
:100E8000087048700220907070BD0000D0000020F3
:100E9000B7030020FEE77047F0B5002201274FF0AE
:100EA000030C0B6807FA02F52B40AB422CD1066805
:100EB00053000CFA03F4A64306600E79D0F800E064
:100EC0009E4046EA0E0606600E79012E01D0022EE3
:100ED00012D18668A64386604E79D0F808E09E401D
:100EE00046EA0E0686604668AE43466045688E79DF
:100EF0009640B6B235434560C568A543C560CC7918
:100F00009C40C3681C43C460521C102AC9D3F0BD66
:100F10004B07DB0E9A40C90810B500EB8100016A4F
:100F20000F249C40A1430162016A1143016210BD7C
:100F300001837047FEE77CB514460D4606466B46B6
:100F400006223B21682000F0A7F900280BD1BDF84C
:100F5000001049BA3180BDF8021049BA2980BDF8A5
:100F6000041049BA21807CBD7CB514460D46064666
:100F70006B4606224321682000F08EF900280BD131
:100F8000BDF8001049BA3180BDF8021049BA298075
:100F9000BDF8041049BA21807CBD000070B50D4C2D
:100FA0000025C4F8A8520C48016821F440010160F2
:100FB000016841F480010160C4F8AC52022004F5DC
:100FC0002A7402F0C9FB01202060022002F0C4FB59
:100FD000256070BD00804042000402407CB50121C4
:100FE000022000F05FFB01208DF804000220074D75
:100FF0004FF440648DF80500009469462846FFF7D9
:101000004BFF21462846FFF793FF7CBD00040240BA
:1010100070B50D4C0026C4F8A8620C48016821F494
:1010200040010160016841F4800101600125C4F8BC
:10103000AC52022004F52A7402F08EFB25600220D7
:1010400002F08AFB266070BD00804042000402402E
:101050002DE9F047814616480024016821F440013B
:10106000016001680160134E254627464FF00108D4
:10107000C6F8A872022002F06FFBC6F8A8826006CC
:10108000040ED6F82C0208B1641CE4B2022002F06F
:1010900063FB6D1CEDB2082DEAD3B9F1000F04D04B
:1010A000FFF77CFF2046BDE8F087FFF7B1FFF9E7C7
:1010B00000040240008040422DE9F04105461248FC
:1010C000016821F440010160016841F48001016080
:1010D0000E4E0027C6F8A8723C464FF00108E809FA
:1010E000C6F8AC026806050EC6F8A882022002F017
:1010F00033FBC6F8A872022002F02EFB641CE4B297
:10110000082CECD3BDE8F08100040240008040428E
:1011100070B50D48016821F440010160016841F497
:1011200080010160094C0120C4F8AC02C4F8A80297
:10113000022004F52A7402F00FFB002565600220EE
:1011400002F00AFB256070BD0004024000804042AE
:101150000E4810B5016821F440010160016841F4B6
:10116000800101600A4C0020C4F8A802C4F8AC0257
:10117000022004F52A7402F0EFFA0120206060607A
:10118000BDE81040022002F0E7BA0000000402406F
:101190000080404270B512480024016821F44001EB
:1011A0000160016801600F4D0126C5F8AC620220A4
:1011B00002F0D2FAC5F8A862022002F0CDFA07E0E8
:1011C000641CE4B2FA2C03D9FFF7C2FF012070BD02
:1011D000D5F82C020028F3D1C5F8A80270BD000094
:1011E000000402400080404210B5FFF7F7FE802166
:1011F0006B2000F0BFF8642002F092FA00216B200F
:1012000000F0B8F8002000F081F8002000F079F834
:10121000322000F098F80021382000F0ABF80021CF
:101220006A2000F0A7F80021232000F0A3F8802115
:10123000372000F09FF8752000F011F8682801D0E1
:10124000012010BD01216B2000F094F800216C20DA
:1012500000F090F8322000F076F8002010BD10B5B4
:101260000446FFF755FFD020FFF726FFFFF792FF58
:101270002046FFF721FFFFF78DFFFFF749FFD12041
:10128000FFF71AFFFFF786FF0020FFF7E1FE044695
:10129000FFF75EFF204610BD2DE9F0411C461546C4
:1012A0000F460646FFF734FF7006000EFFF704FFF7
:1012B000FFF770FF20B1FFF74BFF0120BDE8F08181
:1012C0003846FFF7F9FEFFF765FFFFF721FF012022
:1012D00000EB4600C0B2FFF7EFFEFFF75BFF08E050
:1012E000012D0CD00120FFF7B3FE6D1E04F8010B99
:1012F000EDB2002DF4D1FFF72BFF0020DEE7002038
:10130000F1E7C006010E1C2000F034B8C006010E43
:101310001B2000F02FB8BC2801D3012110E0622867
:1013200001D302210CE02A2801D3032108E014286C
:1013300001D3042104E00A2801D3052100E006219D
:101340001A2000F017B810B504464FF47A708442A2
:1013500001D9044602E0042C00D20424B0FBF4F0CE
:10136000401EC1B2192000F005F86008BDE8104029
:10137000FFF7D1BF70B50C460546FFF7C9FED02078
:10138000FFF79AFEFFF706FF50B92846FFF794FED5
:10139000FFF700FF2046FFF78FFEFFF7FBFE18B1B7
:1013A000FFF7D6FE012070BDFFF7D2FE002070BD12
:1013B0002DE9F0411D4616460C460746FFF7A8FEEC
:1013C0007806000EFFF778FEFFF7E4FE60B92046CE
:1013D000FFF772FEFFF7DEFE00240CE0285DFFF74A
:1013E0006BFEFFF7D7FE20B1FFF7B2FE0120BDE88C
:1013F000F081641CE4B2B442F0D3FFF7A9FE0020F0
:10140000F5E7FEE77047000030B50F23C27801789A
:101410000125FAB1144A126801F1E02102F4E062F8
:10142000C2F5E062C2F30722C2F10404D34042785D
:10143000A24084781C401443220181F800240078E3
:1014400000F01F018D404009800000F1E020C0F84D
:10145000005130BD01F01F0085404809800000F1B7
:10146000E020C0F8805130BD0CED00E00249084397
:1014700002490860704700000000FA050CED00E02A
:1014800090ED000AB5EEC00AF1EE10FA03D2B1EE0B
:10149000400A80ED000A90ED010AB5EEC00AF1EEB7
:1014A00010FA03D2B1EE400A80ED010A90ED020A73
:1014B000B5EEC00AF1EE10FA03D2B1EE400A80EDAB
:1014C000020A90ED030AB5EEC00AF1EE10FA03D25B
:1014D000B1EE400A80ED030A90ED040A80ED070AA0
:1014E000D0ED080A70EE800AC0ED080A90ED061AE9
:1014F00030EE411A80ED091A80ED060AD0ED001A8F
:1015000021EE800AD0ED011A01EEA00AD0ED020A08
:1015100000EE810A80ED050A704700009FED450A44
:10152000454880ED050A80ED040A80ED060ADFEDEE
:10153000430AC0ED020ADFED420AB7EE001AC0ED21
:10154000000A80ED010A7830DFED3E0A80ED050AE1
:1015500080ED040A80ED060AC0ED020ADFED3A0ACA
:10156000F3EE0E1AC0ED000A80ED010A7830DFEDCF
:10157000370A80ED050A80ED040A80ED060AC0ED09
:10158000020A80ED001A80ED010AC838DFED302A2A
:1015900080ED050A80ED040A80ED060AC0ED021A0E
:1015A000C0ED002A80ED010A78309FED2A3A80EDE7
:1015B000050A80ED040A80ED060A9FED272A80EDDA
:1015C000023A80ED002A80ED010A783080ED050AAC
:1015D00080ED040A80ED060AC0ED020A80ED001AD3
:1015E00080ED010AC83880ED050A80ED040A80ED1F
:1015F000060AC0ED021AC0ED002A80ED010A78301B
:1016000080ED050A80ED040A80ED060A80ED023ABD
:1016100080ED002A80ED010A783080ED050A80ED2A
:10162000040A80ED060AC0ED020A80ED001A80ED82
:10163000010A7047000000004002002000004842FC
:101640000000C8420AD7A33CCDCC4C3D9A99993EA4
:101650000000A0420AD7A33B0AD7233C044A002932
:10166000116801D0014300E0814311607047000020
:1016700030380240044A0029116801D0014300E0DB
:10168000814311607047000040380240044A00293D
:10169000116801D0014300E08143116070470000F0
:1016A00020380240044A0029116801D0014300E0BB
:1016B000814311607047000044380240044A002909
:1016C000116801D0014300E08143116070470000C0
:1016D0002438024070B5204B1968204C11F00C01E1
:1016E00004D06610042903D0082903D004601BE04D
:1016F000066019E0184A121F1168C1F3805511687D
:1017000001F03F0115B1B6FBF1F101E0B4FBF1F1DD
:1017100014681268C4F388146143C2F30142521C76
:101720005200B1FBF2F1016019680F2202EA1111B7
:101730000B4A545C0168E14041601C68072505EADA
:101740009424145D21FA04F484601B6805EA533381
:10175000D25CD140C16070BD083802400024F40062
:10176000EC0000200CB50022264900920192086886
:1017700040F4803008604FF4A043086800F4003063
:1017800001900098401C0090019810B90098984270
:10179000F3D10868800332D5012001901948403008
:1017A000026842F0805202601748026842F44042E8
:1017B0000260144808300268026002680260026831
:1017C00042F480520260031F104A1A600A6842F015
:1017D00080720A600A689201FCD50D4A40F20271DB
:1017E0001160016821F003010160016841F002010C
:1017F00001600168C1F381010229FAD10CBD019297
:101800000CBD000000380240007000400830400469
:10181000003C02404FF0E0210428086903D020F08A
:1018200004000861704740F00400FAE710B505F0C5
:1018300059FC012803D0BDE8104005F047B910BDA0
:10184000124810B5016841F4700101601048016848
:1018500041F0010101600E4A002108321160026866
:101860000C4B1A400260031D0B4A1A60026822F4F6
:101870008022026006480C300160FFF773FF0349C5
:101880004FF000608039086010BD000088ED00E076
:1018900000380240FFFFF6FE103000247FB50C46F2
:1018A000054601210846FFF7FDFE641EADF8004025
:1018B00001950024124DADF80840ADF802408DF8B6
:1018C0000A406946284600F0FBF90121284600F04D
:1018D0005FF801224121284600F01EF918208DF8FA
:1018E0000C008DF80D408DF80E4001208DF80F0092
:1018F00003A8FFF789FD0121284600F04FF87FBDBE
:101900000000014010B5084C0121204600F0F8F815
:10191000012802D105A0FEF759FD2046BDE8104080
:10192000012100F038B800000004004054494D3354
:10193000CAE4B3F62E2E2E2E2E2E2E0D0A000000F7
:1019400010B5084C0121204600F0DAF8012802D138
:1019500005A0FEF73BFD2046BDE81040012100F048
:101960001AB80000000C004054494D35CAE4B3F6E3
:101970002E2E2E2E2E2E2E0D0A000000002901885C
:1019800002D041F0800101E021F080010180704728
:10199000C94301827047C943018270470029018809
:1019A00002D041F0010101E021F001010180704706
:1019B000464910B5884206D101210846FFF77EFE50
:1019C000002101205BE0B0F1804F09D040498842FE
:1019D0000DD101210220FFF759FE0021022070E005
:1019E00001210846FFF752FE0021012069E0394934
:1019F000884206D101210420FFF748FE002104207F
:101A00005FE03549884206D101210820FFF73EFEFC
:101A10000021082055E03149884206D101211020DB
:101A2000FFF734FE002110204BE02D49884206D1FB
:101A300001212020FFF72AFE0021202041E0294932
:101A4000884206D101210220FFF738FE0021022042
:101A500015E02549884202D101210C040AE02349FE
:101A6000884202D101214C0404E0214988420AD174
:101A700001218C042046FFF721FE00212046BDE80D
:101A80001040FFF71BBE1B49884206D101214020B0
:101A9000FFF7FCFD0021402013E01749884206D1E2
:101AA00001218020FFF7F2FD0021802009E0134989
:101AB00088420AD1841501212046FFF7E7FD002165
:101AC0002046BDE81040FFF7E1BD10BD0000014019
:101AD0000004004000080040000C004000100040DE
:101AE0000014004000040140004001400044014057
:101AF0000048014000180040001C00400020004049
:101B000002460020138A92890B4202EA010202D0A7
:101B1000002A00D001207047002A828901D00A43A0
:101B200000E08A438281704730B5028C22F00102C6
:101B30000284028C8388048B22F0020224F0730555
:101B40000C882C438D8915434A882A430C4DA842A2
:101B500002D00C4DA8420DD122F00805CA8923F409
:101B600040732A4322F004058A882A430D8A1D43C4
:101B70004B8A2B438380048389684163028430BD90
:101B80000000014000040140028B22F008020A43D9
:101B90000283704770B5028C22F010020284028C1E
:101BA0008388048B0D8824F4E6464FF6FF7404EA1C
:101BB000052535438E8922F0200204EA06161643D5
:101BC0004A8804EA02123243104EB04202D0104E4C
:101BD000B04215D122F08006CA8923F4406304EA9A
:101BE0000212324322F040068A8804EA021232438B
:101BF0000E8A04EA86061E434B8A04EA83033343B3
:101C00008380058389688163028470BD0000014080
:101C100000040140028B4FF6FF7322F4006203EAD6
:101C2000012111430183704770B5028C22F4807248
:101C30000284028C8388848B0D8824F073042543EE
:101C40008E894FF6FF7422F4007204EA06261643CA
:101C50004A8804EA02223243104EB04202D0104EAB
:101C6000B04215D122F40066CA8923F4405304EA35
:101C70000222324322F480668A8804EA0222324336
:101C80000E8A04EA06161E434B8A04EA0313334302
:101C9000838085838968C163028470BD0000014030
:101CA00000040140828B22F008020A4382837047BD
:101CB0004163704781637047C16370470164704737
:101CC00030B50288164C174DA0420DD0A8420BD05B
:101CD000B0F1804F08D0144B984205D0134B984276
:101CE00002D0134B984203D122F070034A881A4362
:101CF000104B984206D0104B984203D022F4407308
:101D00000A891A4302804A68C2620A880285A04290
:101D100001D0A84201D1897A01860121818230BD9A
:101D200000000140000401400004004000080040A1
:101D3000000C0040001000400014004030B5074A7D
:101D40000024074D06E0946110F8013BAB809369D5
:101D5000002BFCD0491EF6D230BD0000000022420C
:101D60000010014070B5194C40F22551204600F09A
:101D70003DF8002828D0204600F0C6F8144AC4B226
:101D8000D189080414D448044FF0000304D50A2C68
:101D90000DD141F4004015E00D2C11D00D4DC1F3D3
:101DA0000D00491C2C5488B2D081C72800D9D3819A
:101DB0002046FFF719F82046BDE8704000F0E4BB6C
:101DC00041F48040D081F3E770BD00000010014075
:101DD000D0000020C70400200029818902D041F4EE
:101DE000005101E021F400518181704770B501F08C
:101DF0001F0501260024C1F3421306FA05F2012B48
:101E00000FD0022B0FD0838A4FEA11210088134292
:101E100006FA01F600EA060001D000B101242046CE
:101E200070BD8389F0E7038AEEE710B5C1F3421372
:101E300001F01F040121A140012B07D0022B07D084
:101E40001430002A026805D00A4304E00C30F8E799
:101E50001030F6E78A43026010BD00007FB50446EB
:101E6000008A0D46C98820F4405001432182A08990
:101E700041F20C618843A9882A8911436A89024387
:101E80001143A181A08A20F44071A8890843A0824F
:101E90006846FFF71FFC1A48844202D01948844262
:101EA00001D1039800E00298A189090400EBC00168
:101EB00001EB0010296801D5490000E08900B0FB62
:101EC000F1F06422B0FBF2F109010B096FF0180583
:101ED0006B4300EB8300A3891D044FF0320306D54A
:101EE00003EBC000B0FBF2F000F0070005E003EBED
:101EF0000010B0FBF2F000F00F00084320817FBD1E
:101F000000100140001401408088C0F308007047B1
:101F10000C4D00260C4C052700F084FEFEF7B2FDA8
:101F20002068401C2060A84200DD2660206890FBED
:101F3000F7F107FB110008B9FEF778FE032004F063
:101F40004BFBE9E7008793030000002030B5C34C4A
:101F5000012285B020786378B0FBF3F103FB110513
:101F6000BF495B1E9D4200D1CA70A378B0FBF3F558
:101F700003FB15055B1E9D4200D10A71E378B0FB9F
:101F8000F3F503FB15059B1E9D4200D1CA7323790F
:101F9000B0FBF3F503FB15055B1E9D4200D18A7073
:101FA0006379B0FBF3F503FB15055B1E9D4200D181
:101FB000CA72A379B0FBF3F503FB15059B1E9D4286
:101FC00000D14A73E379B0FBF3F503FB15059B1EC3
:101FD0009D4200D18A73237AB0FBF3F503FB15050C
:101FE000DB1E9D4200D10A74627AB0FBF2F302FB61
:101FF0001303D21E934202D14A7C521C4A74401CE5
:10200000C2B200202270C82A00D920700A780223A8
:10201000F2B10870924A607B1232A47BAA25157037
:1020200000215570EF259570D370107154710846DA
:10203000135C401C1944C0B2C9B20628F8D3917190
:1020400005B08748BDE830400721123000F0E6BAFD
:102050004A785AB1487000904FF4C87364224FF424
:102060009671042000F07CFD05B030BD8A789FEDAC
:102070007D0A82B188707C4BB0EE401A0022D3ED0D
:10208000000A7A4B11462D2093ED000A05B0BDE8F9
:10209000304000F00BBD0A7C4AB1087405B0B0EEC8
:1020A000401ABDE83040F0EE400A00F0B5BCCA7BF3
:1020B0000AB1C873D8E7CA78D2B1C8706C48B0F911
:1020C0000000CDE901036B4803930493B0F90000CD
:1020D00000906948B0F900306848B0F900206848BD
:1020E000B0F900106748B0F9000000F0FBFBBBE757
:1020F0000A793AB1087105B02D21BDE83040084693
:1021000000F062BCCA7A0AB1C872ADE74A7B9AB1E4
:10211000487300900190029003905B48008883B25E
:102120005A48008882B25A48008881B259480088CB
:1021300080B200F0BFFA97E78A7B42B1887305B09E
:102140004FF4E471BDE830407B2000F09FBB4A793A
:1021500062B1487142485E3090EC033A1838D0ECD6
:10216000031A0C3090EC030A012063E08A7962B113
:1021700088713B48823090EC033A1838D0EC031A4F
:102180000C3090EC030A022054E0CA79A2B1C87165
:10219000B2EE024AF2EE003AB1EE0C3AF1EE082A43
:1021A000B1EE042AF1EE001AB0EE081AF0EE000AC1
:1021B000B7EE000A03203DE00A7A92B10872B0EE51
:1021C000404AF0EE403AB0EE403AF0EE402AB0EE2F
:1021D000402AF0EE401AB0EE401AF0EE400A042019
:1021E00028E04A7A92B14872B0EE404AF0EE403AA6
:1021F000B0EE403AF0EE402AB0EE402AF0EE401A3F
:10220000B0EE401AF0EE400A052013E08A7AB2B12F
:102210008872B0EE404AF0EE403AB0EE403AF0EE4E
:10222000402AB0EE402AF0EE401AB0EE401AF0EE2E
:10223000400A062005B0BDE8304000F089BA4A7C6B
:10224000022A7FF437AF487405B00023BDE8304060
:102250001A461946184600F0E3B900006100002054
:10226000B201002000000000B8000020BC000020E7
:102270007C000020CA0000207A000020C800002056
:10228000C6000020C4000020DC000020DA0000208E
:1022900080000020840000202DE9F047002504463E
:1022A0002DED028B28464A1E04E0235C401C2B4483
:1022B000DDB2C0B29042F8DB601810F8010CA84201
:1022C0007DD12078AA287AD16078AF2877D1A078FC
:1022D0000126A94F02280CD12079012805D17E7151
:1022E000BE71FE713E727E72BE722079A02800D14E
:1022F0007E70A0789FEDA18BDFF8889210287CD1AA
:1023000020796179000200B2084305F0B4FB53EC78
:10231000182B05F0C7FB05F04DF9DFF85C8208F1DA
:102320005208C8F80000A079E179000200B2084321
:1023300005F0A1FB53EC182B05F0B4FB05F03AF9BE
:10234000C8F80400207A617A000200B2084305F060
:1023500092FB53EC182B05F0A5FB05F02BF9C8F800
:102360000800A07AE17A000200B2084305F083FB7E
:1023700053EC182B05F096FB05F01CF9A8F10C089E
:10238000C8F80000207B617B000200B2084305F022
:1023900072FB53EC182B05F085FB05F00BF9C8F820
:1023A0000400A07BE17B000200B2084305F063FB60
:1023B00053EC182B05F076FB05F0FCF800E0BAE0D2
:1023C000C8F80800207C617C000200B2084305F0D8
:1023D00052FB53EC182B05F065FB05F0EBF808F108
:1023E0001808C8F80000A07CE17C000200B2084395
:1023F00005F041FB53EC182B00E01CE005F052FB0C
:1024000005F0D8F8C8F80400207D617D000200B214
:10241000084305F030FB53EC182B05F043FB05F0A7
:10242000C9F8C8F80800387828B93E70A17889F84A
:102430000D1089F80E50A07811287CD1207961798F
:10244000000200B2084305F016FB53EC182B05F010
:1024500029FB05F0AFF8DFF8208108F17608C8F80D
:102460000000A079E179000200B2084305F003FB07
:1024700053EC182B05F016FB05F09CF8C8F8040087
:10248000207A617A000200B2084305F0F4FA53ECB6
:10249000182B05F007FB05F08DF8C8F80800A07AA6
:1024A000E17A000200B2084305F0E5FA53EC182B7C
:1024B00005F0F8FA05F07EF8A8F10C08C8F800005D
:1024C000207B617B000200B2084305F0D4FA53EC94
:1024D000182B05F0E7FA05F06DF8C8F80400A07BAA
:1024E000E17B000200B2084305F0C5FA53EC182B5B
:1024F00005F0D8FA05F05EF8C8F80800207C617C89
:10250000000200B2084305F0B6FA53EC182B05F0B0
:10251000C9FA05F04FF808F11808C8F80000A07CC7
:10252000E17C000200B2084305F0A5FA53EC182B39
:1025300005F0B8FA00E01BE005F03CF8C8F804002C
:10254000207D617D000200B2084305F094FA53EC4F
:10255000182B05F0A7FA05F02DF8C8F80800387810
:10256000002805D13E70A17889F80D1089F80E5029
:10257000BDEC028BBDE8F087B2010020FCA9F1D2CE
:102580004D62503F6100002030B4224C224A0023AB
:10259000217B51B101290FD0022913D0032917D073
:1025A00004291BD0052929D032E0AA2830D10121E5
:1025B0002173107030BC7047AF2829D102212173DC
:1025C0005070F7E7F12823D2032121739070F1E7CF
:1025D00004212173D070A072E372EBE7A17AB9B144
:1025E000491E11F0FF03A372E17A0A4401F10101CF
:1025F0001071E172DED105202073DBE72373E17AED
:102600000A44491D107130BCC9B20348FFF744BEEB
:102610002373CFE76100002080010020FFF78EBB0D
:1026200078B4224CAA260025267066700426A6706F
:102630002071617100929DF80300A0719DF8020065
:10264000E0719DF8010020729DF800006072DFEDDE
:10265000180A00939DF80300A07220EE200A9DF84E
:102660000200E0729DF801002073BDEEC00A9DF8E3
:102670000000607310EE100AADF800009DF8010034
:10268000A0739DF80000E0730C201021E070002082
:102690002246135C401C2B44C0B2DDB28842F8D302
:1026A000555478BC0148491CFFF7B8BFC40100204D
:1026B0000000C8423FB42548AA2110230170417090
:1026C000062181709DF8011001719DF80010417183
:1026D0009DF8051081719DF80410C1719DF80910D5
:1026E00001729DF8081041729DF80D1081729DF8DD
:1026F0000C10C1729DF8191001739DF818104173E8
:102700009DF81D1081739DF81C10C1739DF8211058
:1027100001749DF8201041749DF8251081749DF876
:102720002410C174C37000221421084B00201C5CCB
:10273000401C2244C0B2D2B28842F8D35A5404B0EA
:10274000024830BC491CFFF769BF0000C4010020EB
:1027500018B44C4AAA210023117051700F309070A8
:10276000DFED494A20EE240ABDEEC00A10EE100A41
:10277000ADF8000020EEA40A9DF8010010719DF84C
:102780000000BDEEC00A507110EE100AADF8000056
:1027900021EE240A9DF8010090719DF80000BDEE25
:1027A000C00AD07110EE100AADF8000021EEA40AA4
:1027B0009DF8010010729DF80000BDEEC00A507235
:1027C00010EE100AADF8000022EE240A9DF8010078
:1027D00090729DF80000BDEEC00AD07210EE100A93
:1027E000ADF8000022EEA40A9DF8010010739DF8D8
:1027F0000000BDEEC00A507310EE100AADF80000E4
:1028000023EE240A9DF8010090739DF80000BDEEB0
:10281000C00AD07310EE100AADF8000023EEA40A2F
:102820009DF8010010749DF80000BDEEC00A5074C0
:1028300010EE100AADF8000024EE240A9DF8010005
:1028400090749DF80000BDEEC00AD07410EE100A1E
:10285000ADF800009DF8010010759DF8000050755E
:1028600012201621D0700020145C401C2344C0B2FA
:10287000DBB28842F8D3535418BC0248491CFFF716
:10288000CDBE0000C401002000007A4418B4144BEF
:10289000AA2400221C705C7005249C70ADF8000016
:1028A0009DF8010018719DF800005871ADF80010F6
:1028B0009DF8010098719DF800000424D87108214A
:1028C000DC7000201C5C401C2244C0B2D2B28842A2
:1028D000F8D35A5418BC0248491CFFF79FBE0000A9
:1028E000C40100202DE9F80708ACAA2694E8801757
:1028F000344C0025267066700226A6702E46ADF870
:1029000000009DF8010020719DF800006071ADF895
:1029100000109DF80100A0719DF80000E071ADF875
:1029200000209DF8010020729DF800006072ADF853
:1029300000309DF80100A0729DF80000E072ADF833
:1029400000709DF8010020739DF800006073ADF8E1
:1029500000809DF80100A0739DF80000E073ADF8C1
:1029600000909DF8010020749DF800006074ADF89F
:1029700000A09DF80100A0749DF80000E074ADF87F
:1029800000C09DF8010020759DF800006075ADF84D
:1029900000609DF80100A0759DF80000E07514200E
:1029A0001821E07000202246135C401C2B44C0B26A
:1029B000DDB28842F8D35554BDE8F8070148491CF8
:1029C000FFF72CBEC401002033B4124BAA21062409
:1029D0001970597007219970010E1971010C597104
:1029E000010A9971D8719DF8050018729DF80400CC
:1029F000587200220A21DC7000201C5C401C22441A
:102A0000C0B2D2B28842F8D35A543CBC0148491CE7
:102A1000FFF704BEC4010020DFED231A18B4214BD8
:102A200020EE210AAA20187000225870BDEEC00ABC
:102A30000B20987010EE100AADF8000020EEA10AED
:102A40009DF8010018719DF80000BDEEC00A587194
:102A5000062410EE100AADF8000021EE210A9DF8C0
:102A6000010098719DF80000BDEEC00AD87110EE0B
:102A7000100AADF800009DF8010018729DF80000E2
:102A800058720A21DC7000201C5C401C2244C0B239
:102A9000D2B28842F8D35A5418BC0248491CFFF7F6
:102AA000BDBD0000C4010020CDCCCC3D3CB4DFED69
:102AB0002B1A0190284820EE210AAA240470002332
:102AC0004470BDEEC00A0124847010EE104AADF8C7
:102AD000004020EEA10A9DF8014004719DF80040DD
:102AE000BDEEC00A447110EE104AADF8004021EE70
:102AF000210A9DF8014084719DF80040BDEEC00A96
:102B0000C47110EE104AADF800409DF80140047207
:102B10009DF8004044729DF8074084729DF806407D
:102B2000C4729DF8054004739DF80440447381739A
:102B3000C2730C22C2701021074A0020145C401C92
:102B40002344C0B2DBB28842F8D353543CBC0248A1
:102B5000491CFFF763BD0000C40100200000C8420B
:102B60003FB4184AAA21002311705170937010715C
:102B70009DF8050050719DF8040090719DF80900C2
:102B8000D0719DF8080010729DF80D1051729DF8DB
:102B90000C1091729DF81910D1729DF818101173D4
:102BA00009200D21D0700020145C401C2344C0B2C9
:102BB000DBB28842F8D3535404B0024830BC491CFD
:102BC000FFF72CBDC4010020FFF7C0F9642003F01B
:102BD00003FDF9E7094A0A490A4801F04FFE48B9DE
:102BE000094A0A490A48FEF7A6F90A4A0A490B485F
:102BF000FEF7BAF90A2003F0EFFCEBE7C000002073
:102C0000B8000020BC000020C8000020C600002042
:102C1000C40000207C000020CA0000207A000020B0
:102C2000FEE70000104810B5B0F9000004F023FFE3
:102C30009FED0E1B53EC112B04F034FF04F0ECFE5F
:102C40000C498861C0F1C800C861C82801DDC820EE
:102C500002E05A2801DA5A20C8610146BDE8104056
:102C60000548FFF72BB80000D80000209A999999E1
:102C70009999F13F740000200008004003B40198C6
:102C80004100009850EAC12018BF04204A0D18BF27
:102C900040F0010040F2FF72B2EB515F08BF40F01C
:102CA0000200012808BF052002B0704700000000A4
:102CB00070B5C1482DED020B2DED0E8B82B0119D2C
:102CC00025F000449FEDBEDB9FEDBFEB84423EDB71
:102CD000A4F140511098A1F17F6108430FD0BC4886
:102CE000844202DC28D1109830B39DED100B02B065
:102CF000BDEC0E8B02B0BDE8704000F069BC9DEDEC
:102D0000100B53EC1D2B51EC100B04F0CBFE9DED82
:102D1000100B41EC180B53EC1E2B51EC100B04F074
:102D2000C1FE53EC182B04F077FC41EC100B02B001
:102D3000BDEC0E8B02B070BD0120FDF74EFD02B060
:102D4000BDEC0E8B02B0BDE8704000F055BCA14850
:102D50009FEDA18B844256DA9DED100BB4F1795FA3
:102D60000ADA51EC100BFFF789FF042808BF00F0C6
:102D700053FC9DED100BDAE753EC102B51EC100BCC
:102D800004F090FE41EC190B95480621B0EE490A7B
:102D9000F0EE690A784400F09FFB53EC192B51ECDC
:102DA000100B04F07FFE41EC1A0B8E48B0EE490A7E
:102DB000F0EE690A0421784400F08EFB53EC192BE5
:102DC00051EC100B04F06EFE53EC182B04F024FCB5
:102DD00041EC100B51EC1A0B53EC102B04F0C4FC1B
:102DE000CDE900019DED000B53EC102B9DED100B78
:102DF00051EC100B04F056FE9DED101B53EC112B03
:102E000004F00AFCD2E09DED100B51EC100B01F028
:102E100077F953EC182B04F043FF9FED730BCDE9CA
:102E2000000153EC102B9DED000B51EC100B04F046
:102E300039FE41EC190B6E480621B0EE490AF0EE5E
:102E4000690A784400F048FB53EC192B51EC100B45
:102E500004F028FE41EC1B0B6648B0EE490AF0EE88
:102E6000690A0421784400F037FB53EC192B51EC2C
:102E7000100B04F017FE53EC182B04F0CDFB41ECC3
:102E80001C0B51EC190B03F037F941EC180B5A48A5
:102E90009FED5BABA04222DC53EC1C2B51EC1B0BD7
:102EA00004F062FCCDE900019DED000B51EC180B24
:102EB00053EC102B04F0F6FD53EC182B04F0ACFB94
:102EC00053EC1A2B04F0EEFD53EC1D2B04F0C0FF65
:102ED00053EC1E2B04F0E4FE41EC100B5FE08DED93
:102EE000008B002000909DED000B51EC180B53EC73
:102EF000102B04F091FB9DED000B41EC1E0B53ECED
:102F0000102B51EC100B04F0CDFD53EC192B04F0F9
:102F1000C7FE53EC1E2B04F027FC41EC190B53ECBD
:102F20001C2B51EC1B0B04F01FFC41EC1B0B53EC56
:102F30001A2B51EC190B04F0B5FD53EC1D2B04F0CA
:102F4000AFFE41EC190B53EC1A2B51EC180B04F0AB
:102F5000A9FD53EC1B2B04F0A5FD53EC192B04F039
:102F600077FF9DED000B41EC180B53EC1A2B51EC45
:102F7000100B04F097FD9FED249B53EC192B04F0EC
:102F80008FFE41EC100B51EC180B53EC102B04F09E
:102F90005FFF53EC192B04F083FE41EC100B002D66
:102FA0003FF7C5AE51EC100B04F0F8FA41EC100BF2
:102FB000BDE60000000000000000F03F000000003F
:102FC000075C143326A6913C182D4454FB21F93F8D
:102FD0000000F07F0000E03F000000000000F03F34
:102FE000E05F0000EE5F0000000000000000E03F36
:102FF000325F0000405F00003333EF3F000000000D
:103000000000000000000040182D4454FB21E93F5F
:1030100070B59B482DED020B2DED068B079D25F01D
:103020000044A04218DC9748844202DC0AD106988A
:1030300040B19DED060BBDEC068B02B0BDE87040C3
:1030400000F0C6BA002DCCBF9FED8F0B9FED900B0B
:10305000BDEC068B02B070BD8F48A04215DD8F48D5
:10306000A042D8BF4FF0FF3458DD9DED060B51EC68
:10307000100BFFF703FE042808BF00F0CDFA9DED0A
:10308000060BBDEC068B02B070BD9DED060B51EC3E
:10309000100B01F035F8CDE9060181489FED828BD8
:1030A000A0423CDD8248A0421FDD00249FED82ABA0
:1030B0009DED060B53EC1A2B51EC100B04F0ACFAFF
:1030C0009DED060B41EC190B53EC1A2B51EC100B38
:1030D00004F0E8FC53EC182B04F0BAFE53EC192B67
:1030E00004F042FBCDE9060149E09DED060B012409
:1030F00053EC182B51EC100B04F08EFA9DED060BDF
:1031000041EC190B53EC182B51EC100B04F0A0FE02
:1031100053EC192B04F028FBCDE906012FE0684899
:10312000A0421FDD02249FED689B9DED060B53EC32
:10313000192B51EC100B04F0B5FC53EC182B04F0D8
:103140006BFA9DED060B41EC180B53EC192B51EC6F
:10315000100B04F07DFE53EC182B04F005FBCDE9B9
:1031600006010CE09DED060B032453EC102B9FEDA4
:10317000580B51EC100B04F0F7FACDE906019DED68
:10318000060B53EC102B51EC100B04F08BFC41ECB4
:10319000180B53EC182B04F085FC41EC190B4E482E
:1031A0000621B0EE490AF0EE690A784400F094F97D
:1031B00053EC182B51EC100B04F074FC41EC180B81
:1031C0004648B0EE490AF0EE690A0521784400F05D
:1031D00083F953EC192B51EC100B04F063FC41EC18
:1031E000100B51EC180B53EC102B002C0EDA04F0E2
:1031F00013FA9DED061B53EC112B04F053FC9DEDCF
:10320000061B53EC112B04F04BFD35E004F004FADF
:103210009DED061B53EC112B04F044FC41EC100B0C
:103220002F48784400EBC40090ED001B51EC100BCC
:1032300053EC112B04F00CFE9DED061B53EC112BEF
:1032400004F006FE41EC100B2648784400EBC40065
:1032500090ED001B51EC100B53EC112B04F020FDF2
:1032600041EC100B002DA2BFBDEC068B02B070BD6F
:1032700051EC100B04F092F941EC100B01E7000047
:10328000000010440000F07F182D4454FB21F93F4A
:10329000182D4454FB21F9BF0000DC3F0000203E04
:1032A0000000F33F00000000000000000000F03FBD
:1032B0000000E63F000000000000000000000040A9
:1032C0000080034000000000000000000000F83F04
:1032D000000000000000F0BF825C0000385C0000CD
:1032E000C25B00007A5B000070B56B4E2DED040BE5
:1032F0002DED028B82B0DDF81CC0DDE905235C42B8
:103300002CF000411C4341EAD474049D22F000409B
:10331000B44205D86C422C4340EAD474B4420BD971
:103320009DED061B9DED040B02B0BDEC028B04B0BD
:10333000BDE8704000F056B9ACF14054A4F17F6490
:103340001C430BD0022404EAAC7444EAD274054353
:103350009FED538B9FED542B07D015E09DED040B93
:1033600051EC100B00F0B8F942E0002C11BF012C19
:103370009DED040B02B0BDEC028B04BF04B070BD28
:10338000022C38D0032C3BD00B439FED491B9FED03
:103390004A0B0AD0B14218D1B04209D121F0804184
:1033A00020F08040079105900FE0002A15DA10E028
:1033B000434B7B44002C08BF93ED000B0DD0012C38
:1033C00010D0022C17D0032C1AD0B0421DD1002AE5
:1033D00003DAB0EE410AF0EE610A02B0BDEC028BF6
:1033E00004B070BD93ED000B51EC100B04F0D6F857
:1033F00041EC100BF1E7B0EE480AF0EE680AECE79A
:10340000B0EE420AF0EE620AE7E7401A00153C28E7
:10341000C8BF8DED000B19DCBCF1000FBEBF10F171
:103420003C0F9FED290B8DED000B0FDB9DED060B87
:1034300053EC102B9DED040B51EC100B04F094F9A0
:1034400000F05EFE00F048F9CDE90001002C08BF55
:103450009DED000BC1D0012C10D0022C9FED1C0B58
:1034600053EC102B9DED000B51EC100B0DD004F024
:10347000EFFC53EC182B04F0EBFCB9E7019880F05B
:10348000004001909DED000BA7E704F0E1FC53EC38
:10349000182B04F005FCABE70000F07F00000000F3
:1034A000182D4454FB210940182D4454FB2109C018
:1034B000182D4454FB21F9BF182D4454FB21F93F2A
:1034C000AA5A0000000000000000000000000000F8
:1034D000075C143326A6A13C70B504462DED028B83
:1034E0004D1E00EBC500B0EE408AF0EE608A90ED14
:1034F000000B35F0060017D053EC182B51EC100BD5
:1035000004F0D0FA41EC100B6D1E04EBC50090EDF9
:10351000001B51EC100B53EC112B04F07DF841EC27
:10352000100B35F00600E7D1022D36D0042D1CD04B
:10353000062D1CBFBDEC028B70BD53EC182B51EC5B
:10354000100B04F0AFFA94ED0A1B53EC112B04F0AE
:1035500063F853EC182B04F0A5FA94ED081B53EC18
:10356000112B04F059F841EC100B53EC182B51ECD3
:10357000100B04F097FA94ED061B53EC112B04F09A
:103580004BF853EC182B04F08DFA94ED040B53EC2C
:10359000102B04F041F841EC100B53EC182B51ECBC
:1035A000100B04F07FFA94ED021B53EC112B04F086
:1035B00033F853EC182B04F075FA94ED001B53EC20
:1035C000112B04F029F8BDEC028B41EC100B70BDFF
:1035D00010B553EC102B51EC100B04F01DF841EC1E
:1035E000100B10BD10B553EC112B51EC100B04F067
:1035F00013F841EC100B10BD9FED050B10B553EC0B
:10360000102B51EC100B04F0AFF841EC100B10BD77
:1036100000000000000000009FED050B10B553EC0A
:10362000102B51EC100B04F03DFA41EC100B10BDC7
:10363000000000000000001030380A2801D20120EC
:103640007047002070477047FEB506460D460024BF
:10365000684600F06BFD00229FED1B1A6B460121AE
:1036600056F8220055F82270C01B00D5404200EEEB
:10367000100A03EB8200B8EEC00AD0ED000A20EE7B
:10368000010AF5EEC00AF1EE10FA0DD0C0EE201AD4
:10369000B7EE000A0D4F31EEC00AB0EEC00A10EED0
:1036A000100AB84207DC09E010EE100A084F38444F
:1036B000084FB84202D301FA02F00443521C032A15
:1036C000CEDB2046FEBD000000008037295C0F3EA7
:1036D000666666C19A99D90010B541EC100BFFF7E8
:1036E00097FC51EC100B10BD10B504460420FEF7FA
:1036F00091F80A484FF47A71047014FB01F1012229
:1037000042804FF0E020026942F002020261416112
:10371000016941F00101016110BD0000CC000020F1
:1037200070B5044603F0DEFC01280CD0094D688812
:10373000844203D3B4FBF0F002F04EFF6888B4FB80
:10374000F0F100FB11444FF47A706043BDE8704023
:1037500000F002B8CC00002070B54FF0E025002149
:103760006C69094AAB6912785043AA699A42FCD045
:1037700002D2A3EB020302E0A4EB02063344194495
:1037800013468142F1D370BDCC00002008B560B172
:1037900020208DF8000028208DF8010030208DF8C1
:1037A000020038208DF8030004E0A32204216846BB
:1037B000FCF78BFF6A46042140F69E2001F026FFAD
:1037C00001F0EAFB08BD00003EB5044602208DF87A
:1037D0000000CA208DF80100E3208DF802000920C6
:1037E0008DF803006A460421682001F00FFFA32032
:1037F0008DF80000610609D5C0218DF80110C8219F
:103800008DF80210C2218DF8031005E08DF801003B
:103810008DF802008DF8030014F4C07F09D0C42194
:103820008DF80410CC218DF80510C6218DF80610F6
:1038300005E08DF804008DF805008DF806008DF880
:1038400008008DF807008DF809006A460A2140F645
:10385000A72001F0DBFEA0074FF0D80503D0202001
:103860008DF8000001E08DF800506A46012140F615
:10387000B62001F0CBFEA00601D5012000E000201B
:1038800000F090F814F4C07F1ED0E0050AD5B220F5
:103890008DF800008B208DF80100B6208DF8020015
:1038A0009B2009E0B0208DF8000080208DF80100F9
:1038B000B4208DF8020090208DF803006A460421A0
:1038C00040F6A22001F0A2FEE0074FF40B6323D0E4
:1038D000F8208DF800006A460121184601F096FE96
:1038E000FA21072000F03CFB072000F007FB012035
:1038F00000F024FB642000F0E3FB4FF4FA7000F0CA
:10390000EFFBC821254800F0C1FA282000F0D6FAC4
:103910000A2000F0E3FA06E08DF800506A46012123
:10392000184601F073FEA00703D5D9208DF80000DA
:1039300001E08DF800506A46012140F23D7001F02F
:1039400065FE600701D5012000E0002000F046F888
:10395000E00601D5012000E00020FFF717FF104D21
:1039600044F00800688101F017FB0020A87360068E
:1039700001D50620A87314F4C07F02D0A87B801D57
:10398000A87314F0140F02D0A87B1030A873A007FE
:1039900002D0A87B001DA87300203EBD09E3CA0227
:1039A000700100200EB54FF4976308B105A000E048
:1039B00007A007C88DE807006A460921184601F0EC
:1039C00025FE0EBDB8AAB38DB4980D355D0000007C
:1039D000B8AAAAAAB088C3C5C700000008B560B1DC
:1039E000C0208DF80000C2208DF80100C4208DF8A1
:1039F0000200C6208DF8030004E08B2204216846F3
:103A0000FCF763FE6A46042140F6982001F0FEFDB3
:103A100001F0C2FA08BD0000C8234FF480620249D9
:103A200040F6F63001F098B96C8100082DE9FF4F9F
:103A300089B01646DDE916520024DFF838810F46BA
:103A400081462C80A24698F80E00694601F032FAB1
:103A50004FF0FF3B18B158460DB0BDE8F08FB8F8F5
:103A60000A0010F0140F3ED0009909BA21F0FF0CA3
:103A70009DF803104CEA010CC6F800C0019909BA80
:103A800021F0FF039DF807100B43736002999DF826
:103A90000B2009BA21F0FF011143B160039A9DF890
:103AA0000F4012BA22F0FF022243F26010241B14CE
:103AB00009144FEA2C46121416FB06F613FB036397
:103AC00011FB01F112FB02111944A1F17061B1F176
:103AD000007F04D901F060FAA5F800A0BBE72988AF
:103AE00041F48071298041066A460ED51119A41D42
:103AF0000B885BBA3B804B885BBA7B80898849BA6C
:103B0000B980298841F00801298010F4C07F11D0C4
:103B10001119A41D0B885BBAA9F800304B885BBA59
:103B2000A9F80230898849BAA9F80410298841F017
:103B300070012980800718D01444E07800F0C00597
:103B400000F03F016078C00707D0C80801F0070106
:103B5000D8F80020491C02B190476078000704D5CE
:103B6000D8F8041009B1A80988470C9800F0BAFDEC
:103B7000002071E7700100202DE9FF41044603A8F1
:103B800000F09AFFBDF80C00420CC3032F480189D6
:103B900001F003004D0754F8200000D54042C1F366
:103BA000C1058E0654F8255000D56D42C1F381162B
:103BB000C90554F8264000D56442A0FB0367C1172D
:103BC00001FB037100FB0210810041EA9670A5FB26
:103BD0000367E91701FB037105FB02118D0045EA3C
:103BE0009671A4FB0367E51705FB037304FB023220
:103BF000930043EA9672030E8DF80030030C8DF8A3
:103C00000130030A8DF802308DF80300080E8DF89C
:103C10000400080C8DF80500080A8DF80600100E47
:103C20008DF80800100C8DF80900100A8DF80A00B4
:103C30008DF807108DF80B206A460C214FF4257083
:103C400001F0E4FC04B0BDE8F08100007001002048
:103C500030B5044613A185B007C98DE807004FF0C1
:103C6000FF35C82C16D8C820B0FBF4F1491E080A4D
:103C70008DF80C008DF80D1003AA022140F21620D9
:103C800001F0C4FC30B96A460C2140F6C12001F0B5
:103C9000BDFC10B1284605B030BD05488481002028
:103CA000F9E70000FEF2ABC4AAF1DFDFBBAFDFDF54
:103CB00070010020F8B53049098901F0030250F87D
:103CC00022404A0700D56442C1F3C10250F82230B5
:103CD0008A0600D55B42C1F3811250F82220C80544
:103CE00000D55242254984FB0140850045EA947085
:103CF00083FB014382FB0121950F45EA8105010EFB
:103D00008DF80010010C8DF80110010A8DF80210D9
:103D1000A40F8DF8030044EA83046A4604214FF49B
:103D2000747001F073FC4FF0FF3688B9200E8DF8E7
:103D30000000200C8DF80100200A8DF802008DF89B
:103D400003406A4604214FF4757001F05FFC08B12E
:103D50003046F8BD280E8DF80000280C8DF80100C3
:103D6000280A8DF802008DF803506A4604214FF4AA
:103D7000767001F04BFCF8BD7001002009E3CA0227
:103D80002DE9FF4104463CA002AB006802903BA035
:103D9000006803903AA006683AA0056804F00300A2
:103DA000195C8DF80010C4F3C1015A5C8DF8012034
:103DB000C4F381129B5C8DF8023003AB185C8DF864
:103DC0000400585C8DF80500985C8DF806006A4682
:103DD000032140F2264001F019FC4FF0FF37E0BB11
:103DE00001AA032140F22A4001F010FCA8BBCDE952
:103DF000006560070BD59DF8000040F001008DF8CC
:103E000000009DF8040040F001008DF80400A006B9
:103E10000BD59DF8010040F001008DF801009DF8E0
:103E2000050040F001008DF80500E0050BD59DF878
:103E3000020040F001008DF802009DF8060040F0FD
:103E400001008DF806006A4603214FF4886001F0F6
:103E5000DDFB10B901AA032100E004E040F231408B
:103E600001F0D4FB18B1384604B0BDE8F081064833
:103E700004810020F8E700004CCD6C000CC92C0038
:103E80003656760026466600700100204FF47A729E
:103E900090FBF2F008B54843010E8DF80010010CBC
:103EA0008DF80110010A8DF802108DF803006A46A2
:103EB00004214FF4AE7001F0A9FB08BD0521B0FB51
:103EC000F1F008B5010A8DF800108DF801006A467E
:103ED00002214FF4AD7001F099FB08BD0521B0FB44
:103EE000F1F008B5010A8DF800108DF801006A465E
:103EF00002214FF4AC7001F089FB08BD08B5002128
:103F00008DF80010C10702D030218DF80010810714
:103F100005D59DF8001041F00C018DF80010400708
:103F200005D59DF8000040F003008DF800006A46BA
:103F300001214FF4A47001F069FB08BD08B560B120
:103F4000042800D90420401E8DF800006A46012193
:103F500040F24F1001F05AFB08BD0120F3E70000CA
:103F600070B504462DED028B82B040074FF0FF354F
:103F70007ED0B1F5C86F7BD800EE101AB8EE400ABB
:103F8000DFED460A01A880EE208A00F077FD9DF85B
:103F90000400022806D0042810D0082835D01028A4
:103FA00074D13EE09FED3E0A28EE000ABCEEC00A46
:103FB00010EE100A9FED3B0A82B20AE09FED3A0A2A
:103FC00028EE000ABCEEC00A10EE100A9FED370A78
:103FD00082B228EE000A6E46BCEEC00A10EE100A4D
:103FE00081B2100A8DF800008DF80120080A8DF8C2
:103FF00002008DF80310E00726D0324602214FF46C
:10400000EA7001F003FB98BB17E09FED290A28EE48
:10401000000ABCEEC00A10EE100A9FED260A82B21A
:10402000D7E79FED250A28EE000ABCEEC00A10EE85
:10403000100A9FED220A82B2CBE7B21C02214FF494
:10404000927001F0E3FA98B9A0070DD56A460221F3
:104050004FF4EC7001F0DAFA50B9B21C02214FF4BF
:10406000947001F0D3FA18B9600714D56A4600E0DD
:104070000CE002214FF4EE7001F0C8FA30B9B21C26
:1040800002214FF4967001F0C1FA20B1284602B027
:10409000BDEC028B70BD0020F9E700000000484332
:1040A0000000804600004046000000460000C04579
:1040B0000000804500004045000000450000C0446D
:1040C0000521B0FBF1F008B5010A8DF800108DF85C
:1040D00001006A4602214FF4EF7001F097FA08BD23
:1040E0000521B0FBF1F008B5010A8DF800108DF83C
:1040F00001006A4602214FF4ED7001F087FA08BD15
:1041000082B0CDE9000121F0004001909DED000B4F
:1041100002B051EC100B704703490A885206FCD5D7
:10412000C2B28A8070470000001001401CB50446EE
:1041300027486B46042240680D210078FDF7ACF853
:1041400008B107201CBD9DF800001C2101EAD00227
:104150009DF803009FED1F1AC0F301131A438DF859
:1041600004209DF80120C0F3810301EAD2021A4322
:104170008DF805209DF8022000F0030001EAD2012D
:1041800001438DF80610DFED141A9FED140A00218B
:1041900001A8425C22B104EB8103C3ED001A0AE0DE
:1041A00004EB810282ED001A0BE0D3ED000A60EE11
:1041B000800AC3ED000A425C521E12F0FF02425414
:1041C000F3D1491CC9B20329E3D300201CBD000070
:1041D0002C000020000000007B14AE3E1D5A843FDE
:1041E0002DE9FE4F05460120C14E8DF800004FF02D
:1041F00000088DF8018030680C461746817C706895
:104200006B4602220078FDF7D3F84FF0FF3A002802
:104210007AD1C820FFF784FA8DF8008030686B46A9
:104220000122C17B70680078FDF7C2F80028EFD149
:1042300030686B460122417970680078FDF7B8F864
:104240000028E5D130686B460122817C70680078D7
:10425000FDF7AEF80028DBD130686B460122C17D46
:1042600070680078FDF7A4F80028D1D130686B465B
:104270000122017970680078FDF79AF80028C7D10B
:104280004FF00C098DF8009030686B4601220179DF
:1042900070680078FDF78CF8002835D10F20FFF703
:1042A0003FFAB06A6B460122407A8DF80000306810
:1042B000817870680078FDF77BF8002824D1B06A17
:1042C0006B460122007A8DF80000306841787068F2
:1042D0000078FDF76DF8002873D1B06A807A0FB1CD
:1042E00040F0E0008DF8000030686B4601228179D3
:1042F00070680078FDF75CF8002862D12FB1B06AD1
:10430000C07A40F0E00001E04AE018208DF800009B
:1043100030686B460122C17970680078FDF748F873
:10432000F0BB17B1C820FFF7FBF940208DF8000063
:1043300030686B460122017970680078FDF738F823
:1043400070BB78208DF8000030686B4601224179FF
:1043500070680078FDF72CF810BB3220FFF7E0F909
:104360008DF80080306847466B46417970680122BD
:104370000078FDF71DF898B931687068B046897A01
:1043800000786B460222FCF787FF48B9BDF80000B1
:10439000AF6040BAB0FBF9F06F60C6B22F6000E0CA
:1043A0000FE0A76067602760002739E0D8F80010A9
:1043B000D8F804006B46C97A00780C22FCF76CFF31
:1043C00010B15046BDE8FE8FBDF80000236840BA2A
:1043D00002B2BDF802001A4440BA01B2BDF80400AE
:1043E0002260626840BA11446160A16800B208446A
:1043F000A060BDF806002B6840BA02B2BDF8080004
:104400001A4440BA01B2BDF80A002A606A6840BA8C
:1044100011446960A96800B208447F1CFFB2A8601B
:10442000B742C3D328688322C117090441EA104167
:1044300000040023FBF7A5FF32460023FBF7A1FF92
:10444000286068688322C117090441EA104100040A
:104450000023FBF796FF32460023FBF792FF6860CC
:10446000A8688322C117090441EA1041000400230F
:10447000FBF787FF32460023FBF783FFA860206825
:104480004FF40065C117090441EA104100042A46AF
:104490000023FBF776FF32460023FBF772FF206014
:1044A00060682A46C117090441EA1041000400234C
:1044B000FBF767FF32460023FBF763FF6060A068ED
:1044C0002A46C117090441EA104100040023FBF702
:1044D00058FF32460023FBF754FFA060002802DD9E
:1044E000A0F5803001E000F58030A060002069E791
:1044F0002C000020F8B506462E480D4600244068E2
:104500006B46032200780D21FCF7C6FE08B1072098
:10451000F8BD9DF80000002200F01F008DF800009B
:104520009DF80100DFED241A00F01F008DF8010056
:104530009DF80200694600F01F008DF8020001237B
:1045400056F8220055F82270C01B00D5404200EEFC
:10455000100A885CB8EEC00A60EE210AD0B1B3EE52
:10456000090A9FED161A01E020EE010AC0B2401EB2
:1045700010F0FF008854F7D180EE801AB7EE000AE1
:104580000F4F31EE400AB0EEC00A10EE100AB842EA
:1045900007DC09E010EE900A0A4F3844B0F1D97FE9
:1045A00002D903FA02F00443521C032AC8DB204656
:1045B000F8BD00002C0000200000803754E3853F48
:1045C000295C0F3E0000E0BE00B5024600F00DF889
:1045D0000346D01C00F009F843EAC003901D00F028
:1045E00004F843EA801080B200BD90F90010002961
:1045F00002DD4FF00000704702DA4FF00400704710
:1046000090F90110002902DD4FF00100704702DA35
:104610004FF00500704790F90200002802DD4FF0CE
:104620000200704702DA4FF0060070474FF00700B3
:10463000704700007CB54FF44070FCF717FFA820CE
:10464000FFF752F84FF4E13001F0E6FD00F04CF8CE
:104650001D4900201D4D08604FF4E16421462846A5
:10466000FDF72CFB40F262714E073046FDF720FB50
:1046700021463046FDF71EFB21462846FDF71AFB72
:10468000FCF7B2FDFCF74AFF40F6B830FFF748F8F8
:1046900041F61F411320FDF701F902E0C820FFF7A2
:1046A0003FF800F09DF90028F8D109490120CDE933
:1046B00000010023802207A1094802F0E7FC02F074
:1046C000EBF800207CBD00007000002000080040D6
:1046D0000400002073746172745F7461736B000076
:1046E00069610008704700002DE9F0438BB001219B
:1046F0000320FCF7B3FF01210520FCF7BBFF464E6A
:104700003046FDF755F94FF080494846FDF750F91E
:10471000DFF80881022207214046FCF7F9FB02225C
:1047200006214046FCF7F4FB01220A214046FCF733
:10473000EFFB4FEA7637012205213846FCF7E8FB0C
:104740004FF49860059002208DF8180003208DF832
:10475000190000248DF81A4001258DF81B5005A979
:104760004046FCF799FB2020059005A93846FCF748
:1047700093FBFF200890ADF81C40ADF82440ADF845
:104780001E408DF8264007A93046FDF799FA07A983
:104790004846FDF795FA6020ADF800002802ADF814
:1047A0001000ADF802500294ADF80C406946304656
:1047B000FDF7F0F969463046FDF7B6F96946484617
:1047C000FDF732FA69464846FDF7AEF90821304652
:1047D000FDF720FA08213046FDF7D6F908214846B2
:1047E000FDF760FA08214846FDF7CEF90121304671
:1047F000FDF7C4F801214846FDF7C0F80121304615
:10480000FDF7CCF801214846FDF7C8F804480570CB
:104810000BB0BDE8F0830000000800400004024037
:10482000280000202DE9F041134D20F0010400265E
:1048300095F8240010B10020BDE8F081A87A4FF06F
:10484000FF3838B120402F7C2874A04200D0464663
:1048500024B901E04046EFE7287D40B1012001F096
:1048600021FC3CB100F098FB20B12F74F2E700204E
:1048700001F018FC3046DFE72C00002070B50D4633
:104880002DED0C8B8EB006460CA906A81446F7EE4B
:1048900000BACDE900010BAB02AA09A907A8FFF7EE
:1048A000C5F820B101200EB0BDEC0C8B70BDBDF879
:1048B0001800C0057ED59DED020AF8EEC00A9FEDF6
:1048C000450AB0EE00CA60EE809ADDED030AF8EE0C
:1048D000E00A69EE8CCA60EE808ADDED040AF8EE2B
:1048E000E00A20EE808ADDED050AF8EEE00A20EE0F
:1048F000809AB8EE000A28EE80BA2BEE090A0CEE78
:10490000880A10EE100A03F08DFB41EC100BFEF745
:10491000CFF99FED31AB51EC100B53EC1A2B03F098
:10492000C1F802F047FE2BEE280A28EE0CDA3060C0
:104930000DEE480A30EE2B0A10EE100A03F072FB5F
:104940002DEE090A41EC1B0B0CEEA80A10EE100A22
:1049500003F068FB41EC100BB0EE4B1AF0EE6B1A53
:10496000FEF7C2FC53EC1A2B51EC100B03F09AF833
:1049700002F020FE29EEA90A286008EEA80A08EE37
:10498000480A09EE490A10EE100A03F04BFB28EE24
:10499000880A41EC1B0B09EE890A20EE0C0A10EE86
:1049A000100A03F03FFB41EC100BB0EE4B1AF0EE97
:1049B0006B1A00E00CE0FEF797FC53EC1A2B51EC5D
:1049C000100B03F06FF802F0F5FD206000206AE79D
:1049D000022068E7000080306666666666A64C4086
:1049E00010B5FCF7FBFA00F0F3F808B10A2010BD8F
:1049F000782000F0AFFD10F0FF0F01D0012010BDB6
:104A00007820FFF70FFF10F0FF0F01D0022010BD3C
:104A1000642000F063FD10F0FF0F01D0032010BDF3
:104A2000FEF7FAFF10F0FF0F01D0042010BD12486E
:104A3000FFF7CAFDFFF7A4F910F0FF0F01D0052022
:104A400010BD40F27310FEF7BFFE10F0FF0F01D053
:104A5000062010BD6420FFF7FBF810F0FF0F01D017
:104A6000072010BD01F0DAFA012000F05DFC10F023
:104A7000FF00F6D0092010BD580000200D4A517AE1
:104A800041B1012908D002290FD003290FD04FF0DE
:104A9000FF307047022100E004210170D17C11B188
:104AA000017849000170002070470821F5E71021C6
:104AB000F3E700002C0000200F4A517A41B1012990
:104AC00009D0022911D0032912D04FF0FF307047CE
:104AD0004FF4804101E041F69C710180D17C11B11D
:104AE000018849080180002070474FF48051F4E7A5
:104AF0004FF40061F1E700002C0000200B49097A17
:104B000039B1012907D002290AD003290BD000218D
:104B100003E0FA2101E04FF4FA71018000207047B0
:104B20004FF47A71F9E74FF4FA61F6E72C000020B0
:104B30000D49097A41B1012909D002290DD0032973
:104B40000ED04FF0FF3070479FED080A01E09FED57
:104B5000080A80ED000A002070479FED060AF8E77A
:104B60009FED050AF5E700002C000020000003433C
:104B70000000834233330342333383410C49C97A03
:104B8000072913D2DFE801F01204060A0C0E100008
:104B9000BC2100E062210180002070472A21FAE751
:104BA0001421F8E70A21F6E70521F4E70021F2E7EE
:104BB0002C000020054991F8242012B14FF0FF305D
:104BC0007047C98901800020704700002C00002038
:104BD0002DE9FC414C4C80208DF8000020686B468C
:104BE0000122817C60680078FCF7E2FB4FF0FF3720
:104BF000002832D16420FEF793FD00258DF8005087
:104C000020686B460122817C60680078FCF7D0FB4D
:104C1000002870D120686B460622817D606800788C
:104C2000FCF73AFB002866D19DF805009DF80310BB
:104C3000C007400F01F0010140EA41019DF8010069
:104C40004FF0010600F00100014309D0012905D011
:104C5000022915D02DA0FBF7B9FB4CE0E67410E05B
:104C600020686B460122C17860680078FCF714FB6D
:104C700040BB9DF8000010F00F0020D0042822D087
:104C8000E574FF2004F80A0F4FF6FF7104F8020CD8
:104C900004F8010C6070A180A0712072A6702676C5
:104CA0006576E572A572E56025616561A576E576B4
:104CB000A5834FF4FA6000F073FB18B907E01D48B4
:104CC000FBF784FB17E01CA0FBF780FBC6E7022084
:104CD00000F088FA78B92A2000F0CAFB58B93220CF
:104CE00000F0FCFB38B90020FFF79CFD18B900204C
:104CF00000F0ACFA10B13846BDE8FC81002000F0AD
:104D000029FC0020F8E700002C000020556E737588
:104D100070706F7274656420736F6674776172650A
:104D20002070726F64756374207265762025642E1E
:104D30000A000000688E000848616C662073656E8A
:104D40007369746976697479207061727420666F12
:104D5000756E642E0A0000002DE9FF4FDFF898A061
:104D6000054685B09AF82500914688464FF0FF3BEE
:104D7000C0BBB8F1000F35D000241FE0281B10285D
:104D800000DD102086B208EB04073A463146204683
:104D900000F03CFC30BB6A463146204600F0D2F8B9
:104DA00000BB384632466946FBF71EFC20B16FF067
:104DB000010009B0BDE8F08FA01984B2AC42DDD388
:104DC0004FEA19208DF810008DF81190DAF80000E4
:104DD000544604AB817EDAF8040002220078FCF726
:104DE000E7FA08B15846E4E7012084F8250008985E
:104DF000E0840020DDE700002C0000202DE9F843CE
:104E000004464FF0FF39282844D80727284D0026AC
:104E10007CB1012000F0FAFA20208DF800004FF05C
:104E20000108012C17D0052C18D88DF80180052019
:104E30001FE0002000F0EAFA8DF800608DF80170A4
:104E400028686B460222817C68680078FCF7B0FA1B
:104E500000BB2E7529E08DF80160E8E7142C04D81A
:104E600002208DF801000A2003E003208DF80100E4
:104E7000142000F0FDFA9DF801006B4607EB80104E
:104E80008DF8010028680222817C68680078FCF7B0
:104E90008FFA10B14846BDE8F8830820A8722E7337
:104EA00085F814800020FFF7BDFC0020F3E7000028
:104EB0002C0000202DE9F843214E0546174696F8B0
:104EC000240089464FF0FF3890B3B07A80B3306841
:104ED0006B460222817A70680078FCF7DDF938BBF6
:104EE000BDF8000044BAAC4202D2002038701FE086
:104EF00070684188B4EB510F11D9316800786B4666
:104F0000497C0122FCF7C8F990B99DF80000C00661
:104F100005D500F041F86FF00100BDE8F883306876
:104F2000EAB24B46C17A70680078FCF7B5F908B16F
:104F30004046F2E7B4FBF5F0401E38700020ECE785
:104F40002C000020F8B517000D464FF0FF341FD09D
:104F5000104EB17AE1B1010A8DF80010C0B28DF89F
:104F60000100411970684289914211D83168007876
:104F70006B46097E0222FCF71BFA48B93068EAB298
:104F80003B46417D70680078FCF786F9002800D028
:104F90002046F8BD2C000020F8B5554D4FF0FF36E7
:104FA000A87A00287ED000248DF8004028686B463F
:104FB0000122C17B68680078FCF7FAF9002871D1FA
:104FC00028686B460122417968680078FCF7F0F99F
:104FD000002867D128686B4601220179686800784B
:104FE000FCF7E6F900285DD195F82400E0B30C2029
:104FF0008DF8000028686B46012201796868007806
:10500000FCF7D6F9002871D13220FEF789FBC020C9
:105010008DF80000A87AC00702D0E0208DF80000CB
:1050200028686B460122017968680078FCF7C0F9AE
:1050300000285BD1687C18B102208DF8000001E0E7
:105040008DF8004028686B460122C17B68680078B3
:10505000FCF7AEF930BB8DF8004028686B460122A2
:105060004179686800783DE0FFE704208DF8000092
:1050700028686B460122017968680078FCF798F986
:1050800080B9A87C88B9A87AC0070ED060208DF8B6
:10509000000028686B460122017968680078FCF7F7
:1050A00087F900E022E008BB01E04020EFE7322072
:1050B000FEF736FB687C18B101208DF8000001E096
:1050C0008DF8004028686B460122C17B6868007833
:1050D000FCF76EF950B92868054B012241796868E0
:1050E00010330078FCF764F9002800D03046F8BD92
:1050F0002C0000202DE9F047394E82468AB096F800
:1051000024000F4620B1002000F00EF9012500E038
:10511000002507A8FFF7F2FC06A8FFF7AFFC09A8D7
:10512000FFF72CFD08A8FFF745FD96F80A9096F8C2
:1051300010800024002239465046FFF751F810B184
:10514000641C022CF6DB022C1AD00024012203A9D5
:105150006846FFF745F810B1641C022CF6DB022C00
:105160000ED003A93846FEF76FFAC7B2694650461B
:10517000FFF7C0F910F0FF0F4FF0000402D002E07B
:10518000002403E001240FB944F00204FF20307230
:105190007072F0724FF6FF71F181B07230740120BD
:1051A0003073BDF81C0000F0FBF89DF8180000F00B
:1051B00019F8BDF8240000F05BF9BDF8200000F0FC
:1051C0008DF9484600F0C6F94046FFF72BFB15B1B4
:1051D000012000F0A9F80AB02046BDE8F0870000E1
:1051E0002C00002038B5184C4FF0FF35A17A19B3C8
:1051F000022806D0042806D008280ED010281BD17B
:105200000DE0002000E008208DF80000607A9DF895
:105210000010B0EBD10F04D005E01020F4E7182007
:10522000F2E7002038BD20686B460122C179606832
:105230000078FCF7BDF808B1284638BD9DF800009D
:10524000C0086072EDE700002C000020F8B5354D75
:105250000446A87CA04201D10020F8BD31484FF09F
:10526000FF366B46D0E900104FF001020979007853
:1052700034B3FCF711F870BB9DF800006B4620F0CA
:1052800020008DF800002868012201796868007804
:10529000FCF78EF8F8B90320FEF742FA02208DF8E9
:1052A000000095F8220078B382202BE028686B4636
:1052B0000122017D68680078FCF77AF858B92EE081
:1052C000FBF7EAFF38B9A87AC0079DF8000003D0C1
:1052D00040F0200002E00CE020F020008DF80000FB
:1052E00028686B460122017968680078FCF760F84D
:1052F00008B13046F8BD0320FEF712FA95F82200F7
:1053000000B180208DF8000095F823000028CDD052
:105310009DF8000040F030008DF80000C6E7AC7446
:105320009AE700002C00002038B51C4C94F824109B
:1053300081421DD0002500B394F82500D0B1002093
:1053400000F0B0FE0020FFF781FFE08C00F0C6F80F
:105350008DF8005060686B46012200782321FCF72D
:1053600027F8012084F8240000F09CFEFFF714FECB
:10537000002038BD4FF0FF3038BD002000F092FE15
:10538000207C8DF8000060686B46012200782321A4
:10539000FCF70EF884F82450E8E700002C00002009
:1053A00038B5194C4FF0FF35A17A31B3FA2809D03E
:1053B000B0F5FA7F08D0B0F57A7F0FD0B0F5FA6F6C
:1053C0001BD10DE0002000E008208DF80000207ABD
:1053D0009DF80010B0EBD10F04D005E01020F4E7E9
:1053E0001820F2E7002038BD20686B460122817941
:1053F00060680078FBF7DCFF08B1284638BD9DF8EF
:105400000000C0082072EDE72C00002038B5174DD1
:10541000044695F82300A04201D1002038BD0CB10C
:10542000302000E000208DF80000A87C28B19DF815
:10543000000040F002008DF8000095F8220028B12D
:105440009DF8000040F080008DF8000028686B4651
:105450000122017D68680078FBF7AAFF10B14FF0C8
:10546000FF3038BD85F82340D7E700002C0000202E
:1054700038B5194C4FF0FF35A17A31B3BC2801D3B0
:10548000012010E0622801D302200CE02A2801D379
:10549000032008E0142801D3042004E00A2801D3E3
:1054A000052000E006208DF80000E07A9DF800104D
:1054B000884201D1002038BD20686B4601228178E6
:1054C00060680078FBF774FF08B1284638BD9DF886
:1054D0000000E072EEE700002C000020F8B51C4D43
:1054E00004464FF0FF37A87A28B395F8240010BB84
:1054F000287D48B12CB1282C03D8E0B2FFF77EFC00
:1055000024E00020FFF77AFC4FF47A76042C01D2D5
:10551000042402E0B44200D93446B6FBF4F0401E45
:105520008DF8000028686B46012241786868007891
:10553000FBF73EFF08B13846F8BD9DF80000401C5F
:10554000B6FBF0F0E8814008FFF792FF0020F8BDBD
:105550002C000020F8B5044610F0700F4FF0000644
:1055600001D0012004E014B18DF8006002E0402079
:105570008DF80000244D6B4601222868817C686804
:105580000078FBF715FF4FF0FF3760BB9DF8000078
:1055900020F0400028738DF80060600602D40420DB
:1055A0008DF80000A00605D49DF8000040F0020030
:1055B0008DF80000E00605D49DF8000040F00100E1
:1055C0008DF80000200705D49DF8000040F0380059
:1055D0008DF8000028686B460122C17C686800785D
:1055E000FBF7E6FE10B1AE723846F8BD24B1082CC8
:1055F00002D00020FFF70AFFAC722E753220FEF7B2
:105600008FF80020F8BD00002C000020F8B517002E
:105610000D464FF0FF341FD0104EB17AE1B1010AB0
:105620008DF80010C0B28DF80100411970684289F0
:10563000914211D8316800786B46097E0222FBF74F
:10564000B7FE48B93068EAB23B46417D70680078E1
:10565000FBF7AEFE002800D02046F8BD2C0000204D
:105660002DE9F041184E0F460446F5683068001DDC
:1056700000F028FE38B9306890F82C1001208840DE
:10568000316981433161601C07D137B13168BDE8B0
:10569000F0410E48091D00F04DBE30682C44AC426C
:1056A0004460316805D2B06BBDE8F041091D00F0DF
:1056B00029BE706B091D00F025FEB06A844200D23D
:1056C000B462BDE8F0810000FC000020A0080020CA
:1056D0002DE9F041054600F039FE2D4EB068401C22
:1056E000B06030682B4F10B1706930B32BE035607B
:1056F000B068012827D1002404EB840007EB800068
:1057000000F0F2FD641C202CF6D3234800F0ECFDE1
:105710002148143000F0E8FD1F48283000F0E4FD77
:105720001D483C3000F0E0FD1B48503000F0DCFD2F
:10573000194870631430B06305E03068E96AC06AE4
:10574000884200D83560706A0121401C706268642C
:10575000E86A326981401143316100EB800007EB58
:105760008000291D00F0E6FD00F02CFE7069002885
:105770000CD03068E96AC06A884207D207494FF006
:1057800080500860BFF34F8FBFF36F8FBDE8F0818B
:10579000FC000020D00500205008002004ED00E0AF
:1057A00010B500F0D3FD0E4C2068A0B90D4800F0F4
:1057B0009BFD0C48143000F097FD0A48E06014305F
:1057C000206100221021052001F096F9206010B11F
:1057D00005A100F0CDFEBDE8104000F0F3BD0000D3
:1057E00038010020B4080020546D72510000000000
:1057F00070B5124E124D1CE001F098F8306820B1DF
:10580000002401F09DFDA4B901E00124F9E700F0B6
:105810009DFDF068C468201D00F054FDA868401E7E
:10582000A8606868401E686000F0CCFD204600F06B
:1058300052F868680028DFD170BD00008C08002095
:10584000FC00002030B4026C0B46002A0BD0C1686B
:105850001144C1604468A14201D30168C16030BCF9
:105860001846FAF7EDBE30BC70472DE9F041856B64
:10587000174604460026026C82B1C7B1E068FAF709
:10588000DFFEE168206C091AE1602268914202D2D1
:105890006168081AE060022F16D017E02068A8B9E6
:1058A000606801F0A7FC0646002060600EE0A0687A
:1058B000FAF7C6FE216CA0680844A06061688842BF
:1058C00004D32068A06001E005B16D1E6D1CA563C6
:1058D0003046BDE8F08110B50446006B00F0A4FD31
:1058E0002046BDE8104000F09FBD000010484FF476
:1058F000A041420706D0C01D0D4920F00700411A03
:10590000C1F5A0410B4A00230144C2E90003083954
:10591000103A21F0070111604B600B600B1AC0E9CF
:10592000001393604FF000405360D0607047000058
:10593000DC08002068010020074E4FF08054074D1E
:10594000FFF756FF30680128FAD92C60BFF34F8F5C
:10595000BFF36F8FF4E70000D005002004ED00E0F6
:105960002DE9F047DDE909840E461746824691008D
:105970009946089DA522206BFAF7A7FE6FF0030158
:10598000206B01EB8701084420F00707780705D05A
:1059900040F22B3219A11EA0FAF718FD00202218A0
:1059A000315C82F83410315C11B1401C1028F6D300
:1059B000002684F84360202D00D31F25E562C4E94A
:1059C0001356201D00F09BFC04F1180000F097FC1A
:1059D0002461C5F120006462A061666584F85860A6
:1059E0004A465146384600F003FB2060B8F1000FEC
:1059F00001D0C8F80040BDE8F08700002E2E5C46BC
:105A000072656552544F535C7461736B732E6300FF
:105A10004572726F723A25732C25640D0A000000DE
:105A200030B5114900E011460A688242FBD34B6849
:105A30005C18844203D140681844486008464368B3
:105A40001C18944209D1084C103C2468A24209D089
:105A500052681A4442600A6812680260814200D0AB
:105A6000086030BD0460F9E76801002070B50024CB
:105A700041600B4D0061914206D8D11A8269914272
:105A800006D2011D286907E09A4203D2994201D348
:105A9000012403E0011DE86800F034FC204670BDDD
:105AA0003801002010B5044600F050FCA06B20B176
:105AB000002400F087FC204610BD0124F9E7000017
:105AC0002DE9F34100980F460026846C2CB940F66E
:105AD000CE1216A11AA0FAF779FCA06BE16B8842EE
